:020000040800F2
:1000000000500020D5040008B9040008BB04000813
:10001000BD040008BF040008C1040008000000007F
:10002000000000000000000000000000C304000801
:10003000C504000800000000C7040008C904000847
:100040001D0500081D0500081D0500081D05000808
:100050001D0500081D0500081D0500081D050008F8
:100060001D0500081D0500081D0500081D050008E8
:100070001D0500081D0500081D0500081D050008D8
:100080001D0500081D0500081D0500081D050008C8
:100090001D0500081D0500081D0500081D050008B8
:1000A0001D0500081D0500081D0500081D050008A8
:1000B0001D0500081D0500081D0500081D05000898
:1000C0001D0500081D0500081D0500081D05000888
:1000D0001D0500081D0500081D0500081D05000878
:1000E0001D0500081D0500081D0500080000000092
:1000F0000000000000000000000000000000000000
:0C01000000000000000000005FF808F1A3
:10010C0010B5054C237833B9044B13B10448AFF345
:10011C0000800123237010BD0C00002000000000A3
:10012C006013000808B5034B1BB103490348AFF338
:10013C00008008BD000000001000002060130008C3
:10014C002DE9F04788B00024049405940694079494
:10015C00394B9A6942F010029A619A6902F01002C6
:10016C000092009A9A6942F020029A619A6902F010
:10017C0020020192019A9A6942F004029A619A69EA
:10018C0002F004020292029A9A6942F008029A6101
:10019C009B6903F008030393039BDFF8A080012203
:1001AC004FF40051404600F085FBDFF894A0224646
:1001BC008021504600F07EFB224D0122C0212846B2
:1001CC0000F078FB4FF40053049301270597069435
:1001DC000226079604A9404600F05AFA4FF080090F
:1001EC00CDF810904FF01108CDF8148006970796B3
:1001FC0004A9504600F04CFA20230493059406976A
:10020C0004A9284600F044FA40230493CDF8148046
:10021C000694079604A9284600F03AFACDF81090F7
:10022C00CDF814800697079604A9284600F030FAFA
:10023C0008B0BDE8F08700BF00100240001001407C
:10024C0000080140000C014072B6FEE700B587B013
:10025C000023029303930493059300930193134893
:10026C00134A0260436083604FF6FF72C260036101
:10027C004361836100F0ECFE90B94FF4805302931C
:10028C0002A90A4800F01CFF60B9002300930193F7
:10029C006946064800F082FF30B907B05DF804FBF0
:1002AC00FFF7D2FFFFF7D0FFFFF7CEFF28000020AB
:1002BC00002C014008B50A480A4B03604FF4E133A7
:1002CC00436000238360C36003610C22426183613D
:1002DC00C36100F0E3FF00B908BDFFF7B5FF00BF35
:1002EC00700000200038014000B591B02822002198
:1002FC0006A801F027F800230193029303930493BB
:10030C000593012206924FF4803307930A9202223E
:10031C000D920E934FF4E0130F9306A800F0E6FA3B
:10032C0080B90F23019302210291002303934FF410
:10033C0080620492059301A800F018FD20B911B059
:10034C005DF804FBFFF780FFFFF77EFF80B500F040
:10035C0009F9FFF7C9FFFFF7F3FEFFF777FFFFF788
:10036C00A9FF154800F00CFE144B4FF400521A6113
:10037C00A3F5806340225A614FF47A7000F016F9AD
:10038C0000F0C8F80E4C202565610C4E4FF4005758
:10039C0077614FF47A7000F009F93761256100F04C
:1003AC00B8F8074B9B6813F0200FFAD04FF47A7013
:1003BC0000F0FCF8E4E700BF28000020001001402A
:1003CC00000C014082B00E4B9A6942F001029A6116
:1003DC009A6902F001020092009ADA6942F08052A6
:1003EC00DA61DB6903F080530193019B054A536882
:1003FC0023F0E06343F00073536002B0704700BF1A
:10040C0000100240000001400268094B9A4200D0E3
:10041C00704782B003F564439A6942F400629A61B2
:10042C009B6903F400630193019B02B0704700BF0A
:10043C00002C014010B586B0002302930393049363
:10044C0005930268174B9A4201D006B010BD03F514
:10045C0058439A6942F480429A619A6902F4804244
:10046C000092009A9A6942F004029A619B6903F027
:10047C0004030193019B4FF4007302930223039333
:10048C0003230593084C02A9204600F001F94FF410
:10049C008063029300230393049302A9204600F087
:1004AC00F7F8D2E70038014000080140FEE7FEE70C
:1004BC00FEE7FEE7FEE770477047704708B500F0AF
:1004CC0063F808BD704700000C480D490D4A002325
:1004DC0002E0D458C4500433C4188C42F9D30A4AED
:1004EC000A4C002301E013600432A242FBD3FFF755
:1004FC00E9FF00F003FFFFF729FF70470000002021
:10050C000C000020AC1300080C000020B8000020E8
:10051C00FEE770477047000010B504460E4B187884
:10052C004FF47A73B3FBF0F30C4A1068B0FBF3F0A2
:10053C0000F09AF868B90F2C01D901200AE00022CA
:10054C0021464FF0FF3000F057F8054B1C6000209F
:10055C0000E0012010BD00BF0400002000000020BE
:10056C000800002008B5074A136843F01003136015
:10057C00032000F02FF80F20FFF7CEFFFFF722FF2C
:10058C00002008BD00200240034A1168034B1B7871
:10059C000B441360704700BFB4000020040000201F
:1005AC00014B1868704700BFB400002038B50446F2
:1005BC00FFF7F6FF0546B4F1FF3F02D0044B1B7862
:1005CC001C44FFF7EDFF401BA042FAD338BD00BF1F
:1005DC0004000020074AD36823F4E0631B041B0CBF
:1005EC00000200F4E060034343F0BF6343F40033C4
:1005FC00D360704700ED00E000B5194BDB68C3F326
:10060C000223C3F1070CBCF1040F28BF4FF0040CFC
:10061C0003F1040EBEF1060F18D9033B4FF0FF3E59
:10062C000EFA0CFC21EA0C0199400EFA03F322EAB3
:10063C000303194300280BDB0901C9B200F1604028
:10064C0000F5614080F800135DF804FB0023E5E73A
:10065C0000F00F000901C9B2024B1954F4E700BFB6
:10066C0000ED00E014ED00E00138B0F1807F0BD21A
:10067C004FF0E0235861054AF02182F82310002046
:10068C00986107221A6170470120704700ED00E065
:10069C0070B582B00024A446A6E0804DAA4210D0CA
:1006AC0007D97F4DAA420CD005F58035AA4208D057
:1006BC0013E0A5F58015AA4203D005F57025AA42D2
:1006CC0007D18A68002A58D0012A51D043610824E6
:1006DC0003E0A5F58015AA42F3D0BEF1FF0F4ED86A
:1006EC000646BEF1FF0F4CD84FEA8C0233680F253B
:1006FC00954023EA050304FA02F2134333604B6876
:10070C0013F0805F6ED0674B9A6942F001029A61D8
:10071C009B6903F001030193019B4FEA9C02951C1A
:10072C00614B53F825600CF003039D000F23AB4085
:10073C0026EA03065D4B984229D003F58063984264
:10074C0000F08E8003F58063984200F08B8003F5F7
:10075C008063984219D004231AE0CC68BDE7CC68BA
:10076C000434BAE7CC680834B7E7CC680C34B4E787
:10077C0003610824B1E70024AFE70424ADE7061DAC
:10078C00AFE7ACF108029200B0E7032300E00023CE
:10079C00AB4033430232444D45F822304B6813F4DE
:1007AC00803F61D0424A136843EA0E0313604B68E2
:1007BC0013F4003F5ED03E4A536843EA0E03536085
:1007CC004B6813F4801F5BD0394A936843EA0E03DD
:1007DC0093604B6813F4001F58D0354AD36843EA32
:1007EC000E03D3600CF1010C0A6832FA0CF353D0EF
:1007FC00012303FA0CF302EA030E33EA0202F1D1ED
:10080C004A68122A3FF649AF122A3FF666AF01A595
:10081C0055F822F0CF06000867070008710700089A
:10082C0083070008E7060008E7060008E70600084B
:10083C00E7060008E7060008E7060008E7060008D8
:10084C00E7060008E7060008E7060008E7060008C8
:10085C00E7060008E70600086B07000877070008A2
:10086C00012395E7022393E7114A136823EA0E0349
:10087C0013609CE70E4A536823EA0E0353609FE70C
:10088C000B4A936823EA0E039360A2E7084AD368E5
:10089C0023EA0E03D360A5E702B070BD000022105E
:1008AC00000031100010024000000140000801401F
:1008BC00000401400AB101617047090401617047ED
:1008CC0082B0084B1B68084AA2FB03235B0A00FB9F
:1008DC0003F3019300BF019B5A1E0192002BF9D127
:1008EC0002B0704700000020D34D6210002800F0C9
:1008FC00F18170B582B00446036813F0010F2CD05F
:10090C00994B5B6803F00C03042B1DD0964B5B6872
:10091C0003F00C03082B12D06368B3F5803F41D071
:10092C00002B55D103F1804303F504331A6822F4EC
:10093C0080321A601A6822F480221A6037E08A4BDF
:10094C005B6813F4803FE7D0874B1B6813F4003FC0
:10095C0003D06368002B00F0BF81236813F0020FF3
:10096C0075D0814B5B6813F00C0F5FD07E4B5B68CE
:10097C0003F00C03082B54D02369002B00F08A8061
:10098C007A4B01221A60FFF70BFE0546764B1B686B
:10099C0013F0020F75D1FFF703FE401B0228F5D9A7
:1009AC0003209EE1704A136843F48033136063683C
:1009BC0043B3FFF7F5FD05466B4B1B6813F4003F83
:1009CC00CBD1FFF7EDFD401B6428F5D9032088E15E
:1009DC00B3F5A02F09D0644B1A6822F480321A6048
:1009EC001A6822F480221A60E1E703F18043A3F530
:1009FC003C331A6842F480221A601A6842F480323E
:100A0C001A60D4E7FFF7CCFD0546574B1B6813F46F
:100A1C00003FA2D0FFF7C4FD401B6428F5D903208A
:100A2C005FE1514B5B6813F4803FA5D14E4B1B68C3
:100A3C0013F0020F03D02369012B40F04F814A4A77
:100A4C00136823F0F803616943EAC1031360236858
:100A5C0013F0080F33D0A369002B5CD0434B012259
:100A6C00C3F88024FFF79CFD05463F4B5B6A13F0EF
:100A7C00020F21D1FFF794FD401B0228F5D903206A
:100A8C002FE1394A136823F0F803616943EAC10383
:100A9C001360DCE7354B00221A60FFF781FD054639
:100AAC00314B1B6813F0020FD1D0FFF779FD401BBF
:100ABC000228F5D9032014E10120FFF701FF236878
:100ACC0013F0040F00F09680274BDB6913F0805F66
:100ADC0034D1254BDA6942F08052DA61DB6903F0DC
:100AEC0080530193019B0125214B1B6813F4807FDC
:100AFC0026D0E368012B3DD0002B53D103F180436A
:100B0C0003F504331A6A22F001021A621A6A22F0FF
:100B1C0004021A6233E0154B0022C3F88024FFF75D
:100B2C003FFD0546104B5B6A13F0020FC7D0FFF771
:100B3C0037FD401B0228F5D90320D2E00025D3E76E
:100B4C000B4A136843F480731360FFF729FD0646C4
:100B5C00074B1B6813F4807FCBD1FFF721FD801B63
:100B6C006428F5D90320BCE000100240000042428A
:100B7C00007000405F4A136A43F001031362E3689C
:100B8C0033B3FFF70DFD06465A4B1B6A13F0020FE9
:100B9C002FD1FFF705FD801B41F288339842F3D922
:100BAC0003209EE0052B09D0524B1A6A22F0010259
:100BBC001A621A6A22F004021A62E0E74D4B1A6AB2
:100BCC0042F004021A621A6A42F001021A62D6E773
:100BDC00FFF7E6FC0646474B1B6A13F0020F08D0E2
:100BEC00FFF7DEFC801B41F288339842F3D90320D7
:100BFC0077E0E5B9E369002B72D03E4A526802F007
:100C0C000C02082A56D0022B17D03B4B00221A6636
:100C1C00FFF7C6FC0446374B1B6813F0007F47D028
:100C2C00FFF7BEFC001B0228F5D9032059E0314A1E
:100C3C00D36923F08053D361DCE72F4B00221A6673
:100C4C00FFF7AEFC05462B4B1B6813F0007F06D05C
:100C5C00FFF7A6FC401B0228F5D9032041E0236ACC
:100C6C00B3F5803F1AD023494B6823F47413226ADE
:100C7C00606A024313434B601F4B01221A66FFF755
:100C8C008FFC04461B4B1B6813F0007F0ED1FFF743
:100C9C0087FC001B0228F5D9032022E0154A536873
:100CAC0023F40033A1680B435360DCE7002018E009
:100CBC00002016E0012B16D00E4B5B6803F480313C
:100CCC00226A914211D103F47013626A93420ED1DD
:100CDC00002006E001207047012002E0012000E026
:100CEC00002002B070BD0120FBE70120F9E70120D4
:100CFC00F7E700BF001002400000424286B0174BDD
:100D0C000FCB0DF1180C0CE90F0040F20123ADF8DC
:100D1C000430134B5B6803F00C02082A02D0114814
:100D2C0006B07047C3F3834218326A4412F8100CB1
:100D3C0013F4803F0DD00A4B5B68C3F34043183368
:100D4C006B4413F8143C074A02FB00F0B0FBF3F0C1
:100D5C00E6E7054B03FB00F0E2E700BF9013000849
:100D6C000010024000127A0000093D00002800F03B
:100D7C00A08070B50D460446524B1B6803F0070368
:100D8C008B420BD24F4A136823F007030B431360BB
:100D9C00136803F007038B4240F08D80236813F037
:100DAC00020F17D013F0040F04D0474A536843F4D2
:100DBC00E0635360236813F0080F04D0424A536871
:100DCC0043F460535360404A536823F0F003A16826
:100DDC000B435360236813F0010F31D06368012B70
:100DEC0020D0022B25D0384A126812F0020F64D0A2
:100DFC0035494A6822F0030213434B60FFF7D0FBDE
:100E0C000646314B5B6803F00C036268B3EB820F50
:100E1C0016D0FFF7C5FB801B41F288339842F0D9FE
:100E2C00032045E0284A126812F4003FE0D101206B
:100E3C003EE0254A126812F0007FD9D1012037E03C
:100E4C00204B1B6803F00703AB420AD91D4A1368F9
:100E5C0023F007032B431360136803F00703AB4223
:100E6C002DD1236813F0040F06D0174A536823F4CE
:100E7C00E063E1680B435360236813F0080F07D05D
:100E8C00114A536823F46053216943EAC103536048
:100E9C00FFF734FF0C4B5B68C3F303130B4AD35CB3
:100EAC00D8400B4B18600B4B1868FFF735FB002034
:100EBC0070BD012070470120FAE70120F8E70120FE
:100ECC00F6E700BF00200240001002407813000833
:100EDC000000002008000020014B1868704700BF7C
:100EEC000000002008B5FFF7F7FF044B5B68C3F365
:100EFC000223034AD35CD84008BD00BF0010024057
:100F0C008813000808B5FFF7E7FF044B5B68C3F3D1
:100F1C00C223034AD35CD84008BD00BF0010024076
:100F2C008813000810B4036A046A24F001040462F4
:100F3C00846924F0F00C4CEA021223F00A030B43F0
:100F4C008261036210BC704710B4046A24F0100470
:100F5C0004628469036A24F4704C4CEA023223F074
:100F6C00A00343EA01138261036210BC70478368DB
:100F7C0023F070030B4343F00703836070470000BA
:100F8C0090F83D30DBB2012B22D1022380F83D30AA
:100F9C000368114A934210D0B3F1804F0DD0A2F5E3
:100FAC009432934209D002F58062934205D01A68BC
:100FBC0042F001021A60002070479A6802F00702A2
:100FCC00062A07D01A6842F001021A600020704706
:100FDC000120704700207047002C014003681B4A19
:100FEC0090420AD0B0F1804F07D0A2F594329042D3
:100FFC0003D002F58062904203D123F070034A685B
:10100C001343124A90420AD0B0F1804F07D0A2F598
:10101C009432904203D002F58062904203D123F4C3
:10102C004073CA68134323F080034A691343036077
:10103C008B68C3620B688362044B984202D0012315
:10104C00436170470B690363F9E700BF002C014053
:10105C0040B310B5044690F83D30F3B1022384F848
:10106C003D30214651F8040BFFF7B8FF012384F8FB
:10107C00463084F83E3084F83F3084F8403084F8B1
:10108C00413084F8423084F8433084F8443084F89A
:10109C00453084F83D30002010BD80F83C30FFF71F
:1010AC00B3F9DBE70120704710B4846824F47F4C5B
:1010BC0042EA03220A4342EA0C02826010BC7047E7
:1010CC0090F83C30012B66D010B50446012380F813
:1010DC003C30022380F83D300268936823F47F4350
:1010EC0023F0770393600B68602B40D022D8402B01
:1010FC0047D00BD9502B0ED1CA6849680068FFF74E
:10110C0011FF50212068FFF732FF04E0202B0CD098
:10111C0008D9302B09D0012384F83D30002084F805
:10112C003C0010BD0BB1102BF5D119462068FFF710
:10113C001EFFF0E7702B0ED0B3F5005FEBD1CB6840
:10114C004A6889680068FFF7AFFF2268936843F428
:10115C0080439360DFE7CB684A6889680068FFF7D3
:10116C00A3FF2268936843F077039360D3E7CA68C0
:10117C0049680068FFF7E8FE60212068FFF7F7FE7A
:10118C00C9E7CA6849680068FFF7CCFE40212068AF
:10119C00FFF7EDFEBFE702207047000090F83C30EF
:1011AC00012B2CD010B4012380F83C30022380F8A2
:1011BC003D3003685A689C6822F0700C0A6842EA59
:1011CC000C025A6003680F4A93420AD0B3F1804F65
:1011DC0007D0A2F59432934203D002F58062934279
:1011EC0004D124F080044A6814439C60012380F8E5
:1011FC003D30002380F83C30184610BC704702206C
:10120C00704700BF002C014010B5044602681369FA
:10121C0023F44053C1680B43136183680269134381
:10122C0042691A430168CB6823F4B05323F00C03D2
:10123C001343CB600268536923F4407381690B43F9
:10124C0053610268134B9A4220D0FFF74BFE0246C3
:10125C0002EB820202EB820263689B00B2FBF3F2A8
:10126C000D48A0FB02314909642303FB11231B0128
:10127C003233A0FB03235B0903F0F00202EB0112F3
:10128C0003F00F03216813448B6010BDFFF73AFE87
:10129C000246DDE7003801401F85EB5158B310B50D
:1012AC00044690F83D300BB3242384F83D3022687B
:1012BC00D36823F40053D3602046FFF7A5FF2268C0
:1012CC00136923F4904313612268536923F02A03B2
:1012DC0053612268D36843F40053D3600020206428
:1012EC00202384F83D3084F83E3010BD80F83C302B
:1012FC00FFF7A0F8D8E701207047000070B5002672
:10130C000C4D0D4C641BA410A64209D100F022F820
:10131C0000260A4D0A4C641BA410A64205D170BDD0
:10132C0055F8043B98470136EEE755F8043B9847CF
:10133C000136F2E7A4130008A4130008A413000854
:10134C00A813000803460244934200D1704703F8E7
:10135C00011BF9E7F8B500BFF8BC08BC9E46704706
:0C136C00F8B500BFF8BC08BC9E467047F6
:10137800000000000000000001020304060708093D
:10138800000000000102030402030405060708091F
:0C1398000A0B0C0D0E0F101000000000DE
:0413A400310100080B
:0413A8000D0100082B
:0C13AC000024F40001000000100000000C
:04000005080004D516
:00000001FF
